:020000041000EA
:1000000000B5324B212058609868022188439860DF
:10001000D860186158612E4B002199600221596106
:100020000121F02299502B49196001219960352056
:1000300000F044F80222904214D00621196600F024
:1000400034F8196E01211966002018661A6600F04E
:100050002CF8196E196E196E052000F02FF8012189
:100060000842F9D1002199601B49196000215960AB
:100070001A491B48016001219960EB211966A021F2
:10008000196600F012F800219960164914480160C1
:100090000121996001BC002800D000471248134993
:1000A000086003C880F30888084703B5996A0420EC
:1000B0000142FBD001200142F8D103BD02B5186610
:1000C0001866FFF7F2FF186E186E02BD00000240BE
:1000D000000000180000070000035F00212200005C
:1000E000F4000018222000A00001001008ED00E03C
:1000F00000000000000000000000000074B24E7A12
:1001000000200420F7010010C3010010C5010010F9
:10011000C1010010C1010010C1010010C101001097
:10012000C1010010C1010010C1010010C701001081
:10013000C1010010C1010010C9010010CB01001065
:10014000CD010010CD010010CD010010CD01001037
:10015000CD010010CD010010CD010010CD01001027
:10016000CD010010CD010010CD010010CD01001017
:10017000CD010010CD010010CD010010CD01001007
:10018000CD010010CD010010CD010010CD010010F7
:10019000CD010010CD010010CD010010CD010010E7
:1001A000CD010010CD010010CD010010CD010010D7
:1001B000CD010010CD010010CD010010CD010010C7
:1001C00000BE00BE00BE00BE00BE00BEEFF3058054
:1001D000103800BEF2EB88712C2705104C27051053
:1001E0003802001090A31AE71E481F49086006C88D
:1001F00081F3088810471D480068002801D019487D
:10020000F3E70DA40ECC002902D000F012F8F9E7B4
:100210001749184A002000E001C19142FCD116495B
:100220008847164988471649884700BEFDE701C937
:1002300001C29A42FBD370474C270510E000002012
:10024000301200209C38051000000420000004201B
:100250009C3805100010042000100420000000004D
:10026000704700000000000008ED00E0000000D032
:1002700030120020C8DC00206D3F01102103001067
:10028000653F0110F8B5C0460448054B10B58342E0
:1002900003D0044B002B00D0984710BD3012002033
:1002A000301200200000000006480749091A8B1090
:1002B000C90FC91810B5491003D0044B002B00D04A
:1002C000984710BD301200203012002000000000BE
:1002D00010B5074C2378002B09D1FFF7D5FF054B4C
:1002E000002B02D0044800E000BF0123237010BDA2
:1002F0000815002000000000A8860110054B10B56D
:10030000002B03D00449054800E000BFFFF7CCFFF5
:1003100010BDC046000000000C150020A88601108A
:10032000F0B5DE4657464E464546E0B585B013F07B
:100330004FFF2B4801F044FC2A4813F099FF00F0CE
:1003400069F800F0ABF800F0F5F8274801F038FC48
:100350002649274800F00EF9002807D1012005B0F2
:10036000F0BCBB46B246A946A046F0BD03A800F0CB
:1003700003FA204B204E9B46204B214F9A46214B9F
:100380009946214B9846584613F072FF4B46424619
:100390001E48F35C305CB25CF15D0090504613F097
:1003A000EFFF052500F048F80021041C12F0B6F913
:1003B000002810D11649201C12F0B8F900280AD1E3
:1003C000201C00F07FF80398211C00F003FAFA20AB
:1003D000C00001F0F5FB013D002DE3D1D3E7C0469D
:1003E000B80B0000A886011088130000C486011015
:1003F000D0860110D8860110C41E0020E4860110AA
:10040000E8080000EA080000E9080000EB08000026
:100410000000FA4310B50E2002F084F90F2002F01C
:1004200081F9D023802280211B06D20109025A6261
:1004300099629A6110BDC04670B5D024802524060B
:10044000ED010A200021656101F0A6FB8022A56173
:10045000120263681342FCD001F05CFC80220D00A4
:10046000D0210400090612024B681342FCD101F0AE
:1004700051FC001BA94112F093F80022044B11F02B
:10048000E8FF044A044B11F0E4FF12F091F870BD4C
:100490000000E03F48C153C8957A363F10B50220AE
:1004A000D02402F03FF9042324066362032002F003
:1004B00039F908230420636202F034F910236362DF
:1004C00010BDC046194B10B51B78041C002B27D05B
:1004D000FE21890512F02AF9002810D11449201CA8
:1004E00012F024F9D02304221B069A61043200285A
:1004F00010D05A6108329A6100F026F810BDD0235E
:1005000004221B065A6104329A6108329A6100F093
:100510002BF8F3E79A6108325A6100F01FF8EDE713
:10052000D02304221B069A61EDE7C0460811002083
:10053000CDCC4C3E10B5052002F0F4F8D02320229B
:100540001B065A6210BDC04670B5D0242025240673
:100550006561C82001F034FBA56170BDD023202265
:100560001B065A617047C046D02320221B069A61A1
:100570007047C046F0B583B004000D000CF03EFC9F
:10058000002824D10CF0D6FBFA200126800001F0CF
:1005900017FB194F3100380013F0F2FE290020003C
:1005A000164B174A0CF0D4FB011E14D01548164AFE
:1005B00013F0E6FE144801F003FB012E01D10226E0
:1005C000E8E7124813F054FE002003B0F0BD1048D5
:1005D00013F04EFEF8E70F490F4C104B0C5D104A1C
:1005E000CB5C8A5C01940F4C0F48095D009131008F
:1005F00013F0C6FE0120E8E70C870110983A0000CE
:10060000040040006487011088130000A0870110D7
:10061000F8860110C41E0020EB080000E908000065
:10062000E8080000EA0800003087011010B5024811
:1006300013F0A6FE10BDC046C887011010B50029F2
:1006400003D1044813F014FE10BD034813F098FEC4
:10065000FAE7C046E8870110FC87011030B50D00AD
:10066000140089B0002901D0002A01D109B030BDA1
:1006700020220021684612F0A1F8221C1F2C24D849
:10068000290092B2684617F0A3FD00236A46694626
:100690001248135513F074FE6846114917F0C8FD4F
:1006A000002814D06B461B786F2BDFD16B465B782C
:1006B0006E2BDBD16B469B78002BD7D10122094BE7
:1006C00009481A7013F0D4FDD0E71F22D8E7054B74
:1006D0001870064813F0CCFDC8E7C0461C8801100E
:1006E000348801100811002050880110388801104A
:1006F00070B50500140084B0002A22D101261548E7
:1007000013F0B6FD144B01221E701449002300940F
:100710002800019617F00AF8114813F0A9FD1149B5
:10072000039401940C00104B280002930F4A0B23F2
:10073000009616F069FE21000D4813F021FE04B06A
:1007400070BD11000B4813F01BFE0022024B1A7003
:10075000F5E7C04668880110BBDC002088880110DE
:1007600098880110D08801103D060010C48801103F
:10077000E08801101089011010B50F4B84B00400FF
:10078000039317F059F92060002810D00B4A0C4B46
:100790000192002203A900920A4A17F055F900239A
:1007A000094A0A49206817F03BF904B010BD08480F
:1007B00013F05EFDF9E7C046C0A80146A8A90110E4
:1007C000F10600105B0700005D0600102D0600100A
:1007D0003889011030B5134B04001B7895B0081C04
:1007E000002B1AD011F0A8FF0F4D009001912A00A4
:1007F000402104A813F078FB04A817F01BFE002288
:1008000083B20A48039202900192009220000849A4
:1008100004AA16F0F9FD15B030BD064813F028FD06
:10082000F9E7C046BBDC0020748901103D060010CA
:100830007C8901105889011010B508F001FA10BD2B
:10084000F8B501230B72040008F02EFA0500431CD2
:100850000BD1104B186859680F4B22689860D9600B
:100860001900200052699047F8BD01F053FAFA22AE
:1008700006000F00002328000021920011F00CFF59
:100880008023801979411B069942E5D30120034951
:100890004042E1E7C8A9011010110020FFFFFF7FCF
:1008A00070B5094D04002B78002B08D001230749AF
:1008B00020000B722368DB699847012070BD02F0AD
:1008C0000DF801232B70F1E7B5DC00202811002082
:1008D00010B50400036804499B6998472368200009
:1008E00002491B6A984710BD1011002028110020F2
:1008F000002070477047C04610B501F00BFA002980
:1009000005D0FA220023920011F082FB10BDFA21DB
:10091000890011F03FFBF9E783680830002B04D110
:1009200007E018001B68002B03D09942F9D1002082
:1009300003E00023016001200B6070478368002BF7
:1009400008D08B4202D107E0994206D018001B68FC
:10095000002BF9D10020704708300B68036001209C
:10096000F9E7C04643680430002B04D107E01800C3
:100970001B68002B03D09942F9D1002003E000232B
:10098000016001200B6070474368002B08D08B4248
:1009900002D107E0994206D018001B68002BF9D15C
:1009A0000020704704300B6803600120F9E7C0465F
:1009B000F0B55746DE464646C0B53E4B82B05C6851
:1009C0001B680093019483688246002B2CD0082377
:1009D00053449B4601F09EF953469B6804000D006A
:1009E0005F46002B20D000221E0094469846B26835
:1009F000F36820002900801A9941002902DB1400C5
:100A00001D00BC4637003668002EF0D162464346D2
:100A1000002A48D0116850460B6813604B6898470D
:100A200053469B68002BD5D153465C68002C29D0D7
:100A300000255646237A002B31D0210063682572A9
:100A4000300098472468002CF4D1B168B2460029E0
:100A500018D0009C019D0E0003E004000D00002E44
:100A60000ED0330022009868D9682B00121A8B41EF
:100A70003668002BF1DCF2D1002AEED1002EF0D145
:100A800000940195009B019C5246180021001361BF
:100A9000546102B0E0BCBB46B246A846F0BD246833
:100AA000002CC7D1D1E7190053465C68002CBFD198
:100AB000CFE7C046C8A901108023DB051868000FE6
:100AC0007047C0460FB400B5084883B013F0D0FBA0
:100AD000049B002B07D005A91800019113F028FAF8
:100AE000034813F0C5FB012013F03AFA988901106E
:100AF0000C89011070B50F4C0F4D104A24184D4150
:100B0000A900A00F0843A90F69400D4B604011F0E8
:100B1000C3FD4A01C30E1343CA0E58405140094B4E
:100B2000094A11F0B9FD4A00C30F1343CA0F5840D8
:100B3000514070BD157C4A7FB979379EB9E5E41CF8
:100B40006D4758BFBB49D094EB113113F0B5046821
:100B50004568060023002A00C6468068F168034302
:100B60000A4300B5134304D101F0D4F803000B434A
:100B7000FAD02A06230A6040270613432A0A3A437A
:100B8000070CBC4669404B40984663460F041F4320
:100B9000424003045A4043467B4032607360C20EB9
:100BA0004B011343C90E40010843B360A10FAB00D2
:100BB0000B43A20012196B41F060D901500E08439B
:100BC000D201590E11430C0005004B0FC10019430F
:100BD000E0000019694180BCB846F0BDF0B5DE46C2
:100BE00057464E464546E0B5BC4991B00891097854
:100BF000002900D1E5E00CAB9846B94BB94C029303
:100C0000B94BBA4E059310220599404611F0DCFD10
:100C1000B74B06931B78DBB2079301F07BF8FFF725
:100C200069FF0C9B4340089343465B684B40099324
:100C3000B04B9B69DB0433D5AF4BDA6BE023134039
:100C4000402B2DD0EFF305839A46AC4B276899468D
:100C500000239B463300564665689A4638002900B3
:100C6000002E1AD001F060F8EFF3108272B64B46F6
:100C70001B68002BFBD0BFF35F8F2368BB4212D0F1
:100C8000BFF35F8F4B465946196082F3108827687F
:100C9000656838002900002EE4D100F011FFE3E779
:100CA00011F06CF8CEE76368AB42E9D1914B1500C7
:100CB000DF6901F02FF80A220023801859410B0048
:100CC00080215646020009068B4202D301228C4B3A
:100CD000524201200CC43268736892185B4138405C
:100CE000104300240092019330607360BFF35F8F64
:100CF000824A146085F310880199FFF7FBFE434692
:100D00009B68424658404346DB6890604B40D36046
:100D10007C4A029B94461B787B4ADB0063449868BC
:100D200090424CD00021FFF7E5FE089B43400C9316
:100D3000099B4B40190043465960EFF3108572B68A
:100D40006E4A1368002BFCD0BFF35F8F069B079A97
:100D50001B78934214D005980C9A036841685A4056
:100D600043465B680C9242464B40536092688368EE
:100D7000C1685A404346DB684B4041468A60CB60BD
:100D80004046FFF7E3FE102206000C00059841469E
:100D900011F01AFD069A13780133DBB21370BFF31A
:100DA0005F8F0022554B1A6085F3108830002100B8
:100DB00011B0F0BCBB46B246A946A046F0BD9C604F
:100DC000B0E7524D524CAC4620686168514DA24686
:100DD000A84600920193850D8F0286022F433400AE
:100DE0003D0024184D41A30E9946AB0101934B469B
:100DF000019A1A43A30100930192009C019D241AB9
:100E00008D412000644608CC290002930023A446AB
:100E10000393029C039D00196941C445DBD15446EC
:100E200020606160FFF766FE0CAB98460C9B434068
:100E3000029343465B680AA84B40059300F02CF9E7
:100E40000A980B99FFF756FE43469B68434006936A
:100E50004346DB684B400793264B9B69DB0400D479
:100E6000F4E0254BDA6BE0231340402B00D1EDE09A
:100E7000EFF3058300249A46002340250093019454
:100E80001E4B2E0099465546C346164C0023B046CD
:100E900027682E0065689A4638002900002E1AD06F
:100EA00000F042FFEFF3108272B64B461B68002B36
:100EB000FBD0BFF35F8F2368BB422DD0BFF35F8FA2
:100EC0004B465146196082F31088276865683800E0
:100ED0002900002EE4D100F0F3FDE3E7C0DC0020A0
:100EE000B2DC002000140020D0000020C000002050
:100EF000B3DC00200000064000800040300100D03C
:100F0000FFFFFF7F00000340FFFFFF00001C0420E5
:100F1000C8000020002004206368AB42CED1350019
:100F200046469046009A019B1000190080185941CE
:100F30004B4BDA690123134003430093019100F006
:100F4000E9FE0A220023801859410B00802102008B
:100F500009068B4202D30122424B52422260636057
:100F6000012E5ED10098019935003F4E4746306012
:100F70007160D846BFF35F8F3C4B994600234A46C9
:100F8000136087F31088FFF7B5FD029B43400C9375
:100F9000059B4B4019005B46596000F0BBFEFFF714
:100FA000A9FD069B434018005B469860079B4B4099
:100FB00019005B46D960EFF3108772B64B461B6889
:100FC000002BFBD0BFF35F8F089B1B78002B31D128
:100FD000274BDA681F2A3CD05A691F2A3AD0DA69AF
:100FE0001F2A39D05B6A03251F2B33D010F0C6FEB1
:100FF000FF25FF231F4AED0013701F4B02929C46F2
:10100000052365446B604046FFF7A0FD1B4B102293
:1010100018004146059311F0D7FB0123089A13707D
:101020000CE0BFF35F8F00234A46136088F31088FB
:10103000013E2BE70F4B0293104B0593BFF35F8FDD
:1010400000220A4B1A6087F31088DCE510F096FE48
:101050000EE70025EBB2CDE70225EBB2CAE7C046AA
:1010600000000640FFFFFF7FC0000020300100D0DD
:1010700000000340B2DC002008000340D000002044
:1010800010B5FFF7ABFD10BD10B5024800F0E0F859
:1010900010BDC04640DB002010B50822014911F008
:1010A00093FB10BD40DB002030B54B1E012900D161
:1010B000A7E0664A11780D092C0030349F2900D929
:1010C000A2E00470012B00D1BEE00F211478214072
:1010D0000C003034092900D998E04470022B00D16B
:1010E000B2E054782509290030319F2C00D990E0D6
:1010F0008170032B00D1A7E00F2121400C00303478
:10110000092900D987E0C470042B00D19CE09478B1
:101110002509290030319F2C00D97FE00171052B72
:1011200000D191E00F2121400C003034092900D971
:1011300076E04471062B00D186E0D4782509290099
:1011400030319F2C00D96EE08171072B00D17BE0FC
:101150000F2121400C003034092966D8C471082BB6
:1011600000D171E014792509290030319F2C5FD816
:101170000172092B68D00F2121400C00303409295D
:1011800058D844720A2B5FD0547925092900303190
:101190009F2C52D881720B2B56D00F2121400C006E
:1011A000303409294BD8C4720C2B4DD094792509C1
:1011B000290030319F2C00D9073101730D2B43D00A
:1011C0000F2121400C003034092901D937310C009E
:1011D00044730E2B38D0D1790C09220030329F296C
:1011E00000D9073282730F2B2ED00F220A40110034
:1011F0003731092A01D830321100C173102B23D0A6
:1012000010300023037030BD07345AE737310C002B
:1012100063E707316CE737310C0074E707317DE78E
:1012200037310C0085E707318EE737310C0095E741
:1012300007319DE737310C00A3E70731AAE73731C3
:101240000C00C4720C2BB1D1C018DAE740DB0020CF
:1012500010B588B004000D220021684611F0AEFAE6
:101260000D22002104A811F0A9FA4B236A46684612
:10127000137004A90D2217F073F91521082220001C
:10128000694411F0A1FA08B010BDC046EFF3108018
:1012900072B6034A1368002BFCD0BFF35F8F704710
:1012A0002C0100D0BFF35F8F0022024B1A6080F345
:1012B000108870472C0100D070B5EFF3108C72B617
:1012C0000D4D2B68002BFCD0BFF35F8F0724CB089C
:1012D000C618C05C01230C40A3401C00044003421C
:1012E00007D118433070BFF35F8F2C608CF31088E8
:1012F00070BD1000FFF7E6FB2C0100D0F8B54746A3
:10130000CE46884680B5EFF3108C72B6214D2C681E
:10131000002CFCD0BFF35F8F9A422CD8D40807274B
:10132000055D061901241740BC402C421FD007213F
:101330000127894609E0D408055D06194C463900A5
:101340001440A1400C00294211D001329342F2D244
:1013500001204042BFF35F8F00220E4B1A608CF3D6
:10136000108800280FDBC0BCB946B046F8BD254345
:1013700010003570EEE7BFF35F8F00232B608CF316
:101380001088012040424346002BECD00898FFF71C
:1013900099FBC0462C0100D030B5EFF3108C72B62B
:1013A0000A4C2368002BFCD0BFF35F8F0723012278
:1013B0000B409A40CD08435D93434355BFF35F8F85
:1013C000002323608CF3108830BDC0462C0100D070
:1013D000044A1078431CDBB2172B00D9102313707A
:1013E0007047C0463811002010B5064B064C82B03D
:1013F0000100009318221F232000FFF77FFF02B097
:1014000010BDC046A8890110801E00200021044B99
:10141000044ABFF35F8F02C39342FAD17047C046BC
:10142000000100D0800100D0142310B501001888FD
:1014300004331B88984710BD162310B50100188887
:1014400002331B88984710BDF8B54746CE4680B595
:101450000F1E19D0142399460433040000250126D9
:1014600098464B461888434621681B88984701C414
:10147000431E9841013540420640AF42F1D1300051
:10148000C0BCB946B046F8BD0126F8E7142370B5D4
:101490000400188804331B880D0005499847030091
:1014A0000020002C01DB0130A04029009847C046F5
:1014B000554200000A4B1968EFF3108072B60A68B3
:1014C000002AFCD0BFF35F8F1B68BFF35F8F002241
:1014D0001A6080F3108840BF002000217047C0468A
:1014E00050DC0020F0B5DE4657464E464546E0B596
:1014F00083B0EFF3058203231340B54A9900525895
:101500000091904601229A409346B24B1A60B24B2A
:1015100001935B46B1484363434608229B5E99466C
:10152000002B3ADA43469B881BB2002B00DB9DE080
:1015300043469B79002B00D0E1E0434608241C5F22
:10154000002C20DB43465A6963001B19DB00D318CB
:101550009D68DC686B1C00D103E1A04800998446BB
:101560006144826A0B69AE1A9B1A9E4213D35A4693
:10157000036A1A420FD0994800F0C4FB8C4202DC87
:10158000C7D18542C5D940BF03B0F0BCBB46B24607
:10159000A946A046F0BD0D61EDE7424652695B00E9
:1015A00092464B44DB009A4453469E68DF6800F045
:1015B000A9FB8F42B6DC00D1F8E0002F00DAD9E0B9
:1015C0005246534654691B69019A934200D1CCE0BC
:1015D000414652460820085E52880004210010430C
:1015E000984704000D0023002B4300D1C2E0002DDA
:1015F00000DBDFE030003900001BA9415346986052
:10160000D96000229A5E002A00DA8BE743465D69C2
:1016100053009C18E4002C19A768E4688C4200DD94
:1016200080E702D1874200D97CE7464632810836FE
:101630000DE08C4200D1C6E01E000023F25E002ABD
:101640000ADB53009C18E4002C19A768E4689B1877
:10165000DB00EB188C42ECDD53461A804B4633809E
:1016600043469B881BB2002B00DA61E743461A69A8
:10167000EFF3108172B61368002BFCD0BFF35F8FBD
:1016800043469E88012342465B42938036B21369EB
:10169000BFF35F8F00221A6081F31088002E00DAFA
:1016A00046E743465D69083342469C467700BF19CA
:1016B000FF00EF19BB68604698460823D15E92464A
:1016C000FC68002907DA0EE0A24246D01800002389
:1016D000C15E002906DB4B005B18DB00EB18DA6803
:1016E000A242F1DD524606800023FE5E3980002EC4
:1016F000DCDA904643469B79002B00D11DE700239E
:1017000042469371434646460821595E08364B1CB3
:1017100000D138E747468946556902E006004B1C70
:1017200018D04B005B18DB00E8180A008C46E95E15
:1017300043881BB2002BF1DA01235B42DC17836084
:10174000C4604A4503D031803B8903803A81E14639
:101750004B1CE6D1B8464C46F2E69A684245B5D9EC
:10176000C0E7631C00D0F8E605E72000236998472E
:10177000002825D1534642461B8813811269EFF396
:10178000108372B611680029FCD0BFF35F8F424608
:10179000514652880A804246494651801269BFF339
:1017A0005F8F0021116083F31088BBE6864200D86A
:1017B00003E7B7E6094800F0A5FA001969411DE7FB
:1017C000656824680FE7874200D835E744E7C046DC
:1017D00060CB00203C700540E5140010004005403F
:1017E00070B52E4C2569002D04D00A212C4800F03C
:1017F000A1FD70BD2B4E0321300000F079FAE660A8
:10180000FFF7E6FD284B03229C46D02322701B06DF
:101810001B6801216370254B6044A3600F23800087
:1018200020610220638063694942A18019800231EE
:10183000198647311D83585218315A5275325C3916
:101840009952183201319952183201319952183295
:1018500001319952083518329D520231183299528D
:10186000183201319952183201319952183201312E
:1018700099521832013199521832013199520C4B58
:101880000C49DC600130356200F0A8FA0121032028
:1018900000F06CFA084B1D60A7E7C0463C11002021
:1018A00050DC00200040054040000034FFFF1000E5
:1018B00060CB0020E51400103860054000487047F8
:1018C0003C110020F8B51F0008AB1B78040016007F
:1018D000002B08D100F01EFA32003B00121A8B4197
:1018E000002B00DA53E02269EFF3108072B6136820
:1018F000002BFCD0BFF35F8F0223E15E63694A00D7
:101900005218D2009B18002937DB1A88628022699E
:10191000BFF35F8F0025156080F31088069A9E60E4
:10192000DF601A61079A5A615A8801325204520CD8
:10193000101C002A1FD082B2588008041043266968
:10194000EFF3108772B63268002AFCD0BFF35F8FC6
:10195000A2881A80A1802369BFF35F8F00221A60DA
:1019600087F310880B4923788C4601329A40E3684C
:1019700063441A60F8BD0120DDE72369BFF35F8F80
:1019800000221A6080F3108801204042F2E7002014
:10199000F0E7C0463C20000070B501000469EFF399
:1019A000108C72B620680028FCD0BFF35F8F022035
:1019B0000D5E4C6968004019C0002418002D37DB0B
:1019C000208848800869BFF35F8F002606608CF38B
:1019D0001088E36063880498013320615B040598F4
:1019E0005B0CA26060611A1C002B1FD093B228040C
:1019F000628018430A69EFF3108C72B61368002BEB
:101A0000FCD0BFF35F8F8B8823808D800B69BFF381
:101A10005F8F00221A608CF310880B7801329A4095
:101A2000CB6808498C4663441A6070BD0122DDE72B
:101A30000B69BFF35F8F00221A608CF310880120BE
:101A40004042F2E73C20000010B543890A1493425B
:101A50001ADD53009B184269DB00D3180469EFF3C9
:101A6000108C72B62268002AFCD0BFF35F8F5A88B0
:101A7000090494B2090C8A4208D00369BFF35F8F4E
:101A800000221A608CF31088002010BD8022120200
:101A900014435C80012302698371BFF35F8F0021CF
:101AA00011608CF31088044902788C469340C26818
:101AB000012062441360E8E73C2000004078704752
:101AC000F0B504000D0006267642F717C646361913
:101AD0006F4100B582B08F4214D811D000F01AF9CE
:101AE00032003B00121A8B41002B17DC002B47D031
:101AF0002000290000F018F902B080BCB846F0BD03
:101B00008642EBD90022002316001F0000F002F9E4
:101B100032003B00121A8B41002BE7DD00F0FAF88F
:101B200032003B00121A8B41002B0ADB0023019389
:101B3000154B3200009315483B00FFF72DFF00289E
:101B4000D6DB00239C46B046114A124E736A9F4270
:101B500004D8B16A8845CBD99F42C9D11168EFF347
:101B6000108072B60B68002BFCD0BFF35F8F136838
:101B7000BFF35F8F6146196080F3108820BFE5E7EF
:101B8000002AB5D0CAE7C046B51400103C110020A9
:101B900050DC00200040054070B504000D0000F04E
:101BA000B9F88023001969411B06994202D301202C
:101BB00002494042FFF784FF70BDC046FFFFFF7F30
:101BC00070B5060000F0A6F8FA2204000D0000230C
:101BD00030000021920010F05FFD80230019694160
:101BE0001B06994202D3012002494042FFF768FFD9
:101BF00070BDC046FFFFFF7FF0B5D6464F46464654
:101C0000C0B504000D0082B0EFF305878946002FB0
:101C10000ED0344900204B6AAB4203D38A6A0130AC
:101C2000A24226D302B0E0BCBA46B146A846F0BDF7
:101C30002D4B9846DB689A46434650461E7800F086
:101C400061F80B00514602000436B60071582000BE
:101C50008E1A2900801A99418F4211DC0ED020BFC4
:101C6000204A0020536A4B45DCD3926A0130A242DD
:101C7000D8D25B1B5A1E9341D8B2D3E78642EED925
:101C800000F048F822002B00121A8B41002B1ADBBF
:101C900000230193154B2200009340462B00FFF7D1
:101CA0007BFE011E0FDD0F4B5A6A4A4517D39B6A14
:101CB000A34212D34046FFF7C7FE0A4A0020536AE8
:101CC0004B45AFD3D1E7074A0020536A4B45A9D310
:101CD000926A0120A242A5D2CBE74A45EAD120BFB1
:101CE000E8E7C046004005403C110020B514001054
:101CF00010B5024A0248FFF7DFFA10BDC48901108F
:101D0000841E00200300416A0A00986A596A8A42C8
:101D1000FAD17047034B596A0A00986A596A91428E
:101D2000FAD1704700400540064A536A9942FCD8F0
:101D300007D1044B02E05A6A914202D19A6A824268
:101D4000F9D3704700400540054B064A1360064A28
:101D5000136053609360D360136153619361704764
:101D60008080808000E400E004E400E01F2318404D
:101D70001E3B8340002905D0C021044A490053502E
:101D800013607047802201498B50FAE700E100E0C0
:101D900001228240034B1B6813405A1E9341D8B264
:101DA0007047C04600E100E001238340014A136010
:101DB0007047C04600E200E0064B10309B68800090
:101DC000C358054A00209B1A2F229A424041C0B2B4
:101DD0007047C04600ED00E05411002070B50D00C2
:101DE000EFF3108672B60F4A1368002BFCD0BFF3D6
:101DF0005F8F0D4B10309B6884001B590B4A934238
:101E000003D09D4201D00FF0B9FF074B9B681D51D5
:101E1000BFF35F8FBFF35F8F0022024B1A6086F320
:101E2000108870BD240100D000ED00E0CD0100104D
:101E3000F0B557464E46DE464546E0B585B006004D
:101E400000911700EFF3108B72B66A4A1368002BEB
:101E5000FCD0BFF35F8F0025674B5D579A46002D7E
:101E600000DAA9E06B00654C01935B199B00984672
:101E7000A146C1444B4652469B7910361370604BC5
:101E8000B6009B6899590B1B2F2B33D95D4B994298
:101E900000D0ACE0019B42469C465B4B6544AD00E4
:101EA00063535A4B0232A218043B9B1A1B05584A33
:101EB0005B0D651913436B80564B0121AB80FF23EB
:101EC000AB71009BEF71AB604B460B4319004C4B61
:101ED0009B689951BFF35F8FBFF35F8F0022454B23
:101EE0001A608BF3108805B0F0BCBB46B246A94619
:101EF000A046F0BD01200A008243D3798C46BB4244
:101F000031D84546130044491B1B5B415943090D19
:101F10003D4B63533D4B02356519043B5B1B1B0571
:101F20003B4D5B0D2B43AA464D466B800425AC46CA
:101F30005546E044131F44441B1B1B055B0D1D430A
:101F40004B46997100999D8099604946DF71334BEA
:101F500001431360BBE75800C01880002018C17906
:101F6000B9422FD902000623D356002BF3DA02938D
:101F70002B4B61460393131D9A4604235B429C46F8
:101F8000E14450464B461B1A1B055B0D9C46204BFB
:101F9000957198466346404603439380019B5A19C6
:101FA0009200039BA418A380029B1C4AA371009B70
:101FB0002260E771A3608AE70FF0E0FE0025534638
:101FC0005D574FE7908802934005131D9A4603150D
:101FD00061469C464046D444634604302018181A93
:101FE000E0230005400D1B0218430390C5E70FF0E6
:101FF000C5FE4FE7240100D0B8DC002054110020BA
:1020000000ED00E0CD01001000A1FFFF84110020D1
:1020100000E0FFFF01BDFFFFAAAA000001488047C2
:1020200001BD0000F0B5DE4657464E464546E0B5D8
:102030000C0083B0EFF3108872B6634A1368002B6C
:10204000FCD0BFF35F8F614B61499A680300103386
:102050009F00D55900938D4243D0A54254D05D4E88
:10206000AA1B2F2A3DD85C4B9C461B689A4601232D
:102070001A0099468240534613401F2201934B4653
:10208000024093409A468022634650469850BFF3E0
:102090005F8FEFF305839B46002B37D0009B5B459A
:1020A00001D00FF06BFE2A004B469A4390688442A1
:1020B00008D177E04B005B189B00F31898688442C6
:1020C00036D01A00062151560029F3DA844255D041
:1020D000019B002B27D0C02251463F4B5200995004
:1020E00019603A4B9B68DD51BFF35F8FBFF35F8F81
:1020F0000022354B1A6088F3108803B0F0BCBB4651
:10210000B246A946A046F0BD0D00EAE72A004B46BC
:102110009A4390688442D5D10620105613000028B7
:102120000ADA0D0032E0802351462B4AD150D8E71D
:1021300006201856002822DB420011188900741866
:102140008946A1689960E179D97106216156997132
:10215000002925DBA488F11A640524154C440919CB
:10216000E0240905490D24022143998013181B4AD4
:102170009B001178F31899711070A9E71300594664
:10218000002914D1FF3191711549918013490A78C2
:102190009A71144A9B1B5B415A43120D0A7097E7D0
:1021A0001149E2E70620105613000028C4DA0F4A4E
:1021B0000F49D21A083A5002400D014399800D4947
:1021C00052080A43DA8083E7240100D000ED00E0E2
:1021D000CD0100105411002000E100E0B8DC002027
:1021E00001BDFFFFAAAA000001BD00008E11002062
:1021F00000F0FFFF00F8FFFF10B583080400032084
:102200002040FF24054AC0009446844081409B0042
:1022100063441A68A2430A431A6010BD00E400E058
:1022200070B501240443EFF30581EFF3108C72B60F
:10223000214A1368002BFCD0BFF35F8F1F4B0500B2
:102240001F4AED1A6D416A43120D1E4D8900AE689A
:1022500052B27658A6421CD00621595691421CD043
:1022600012215956914222D01E215956914220D016
:102270002A2159560324914210D0134B19781A7011
:102280008171BFF35F8F00220B4B1A608CF31088B3
:1022900070BDAB680D4C5C50EFE70024610009197C
:1022A00089005B18FF21997109499980E5E70124AC
:1022B000F4E70224F2E7C046240100D054110020C4
:1022C000AAAA000000ED00E0B8DC0020CD0100105B
:1022D00001BDFFFF1F2110B5091A0248FFF75CF886
:1022E00010BDC046C4DC002010B5084B084C82B0BD
:1022F00001000093002205232000FEF7FFFF0028C5
:1023000001DB1F23181A02B010BDC046E889011076
:10231000C4DC002070B504000E001500FFF758F86B
:102320000100200000F006F8A680E580BFF35F8F73
:1023300070BDC046024B9C466144890001607047F5
:102340004000003470B5114C114DAC420FD2FF2645
:102350002368002B0CD0FFF73BF801002000FFF7AB
:10236000E9FFA680BFF35F8F0834AC42F0D370BDA5
:10237000FFF72EF801002000FFF7DCFF2671BFF306
:102380005F8F0834AC42E3D3F1E7C0462812002047
:102390003012002010B50400FFF71AF801002000E9
:1023A000FFF7C8FFFF232371BFF35F8F10BDC04647
:1023B00010B50400FFF70CF801002000FFF7BAFF8A
:1023C000FF23A380BFF35F8F10BDC04610B504008C
:1023D0000120FFF709F8034BC3189B002360BFF3EC
:1023E0005F8F10BD40000034034B9C466144890060
:1023F0000160BFF35F8F704740000034F8B5DE46E0
:102400004E4657464546E0B58B4605000A991800EA
:1024100016000FF0BFFD0A9B6C001F02324B6419BF
:102420009C46A4006444636881469F4200D967606B
:102430002B1FDBB29846012B30D9C02380229B0191
:10244000E31812011A60294BAD0059599A46002928
:102450001BD17301E026226853401E408023424670
:102460005B01E3181E60012A30D9802380229B0182
:10247000E31812011A6053464A4667605A51F0BC8D
:10248000BB46B246A946A046F8BD58690FF082FD8A
:10249000013043001B18033BFDD2DAE75B46012BFA
:1024A000CBD1C02303229B01E3181A60023AA36830
:1024B0001A42FCD07301E0262268AD0053401E4052
:1024C00080230A4A5B019246E3181E605A4621683F
:1024D000514003220A401A6001225B469A40A368D9
:1024E0001A42FCD0C1E7C046008000408C1E00208C
:1024F000F0B546464F46D646C0B51F00344B4400A3
:102500009C462418A4006444636888461600FF2B88
:1025100002D880235B006360031FDBB29A46012B65
:1025200030D9C02380229B01E31812011A60294B85
:1025300085005959994600291BD17301E02622686C
:1025400053401E40802352465B01E3181E60012A5F
:1025500030D9802380229B01E31812011A60802366
:102560005B0063604B465F51E0BCBA46B146A8468B
:10257000F0BD58690FF00EFD013043001B18033BFE
:10258000FDD2DAE74346012BCBD1C02303229B01C6
:10259000E3181A60023AA3681A42FCD07301E026DD
:1025A0002268850053401E4080230A4A5B01914601
:1025B000E3181E6042462168514003220A401A6017
:1025C000012342469340A2681342FCD0C1E7C046B3
:1025D000008000408C1E0020014B8000C0587047D6
:1025E0008C1E0020094A83009A1810B514684022F6
:1025F000544080322240064CC000A44663441A6016
:10260000044B9C466044416010BDC04604C001407C
:1026100004D0014000400140074B8000C3181B68F4
:10262000C90092000A435A400C231340034A9446BF
:10263000604403607047C04604C0014004D00140BC
:102640008000002905D0064B9C46022360440360AD
:102650007047044B9C46022360440360F8E7C04681
:1026600004E0014004F00140D0231B061B6830B594
:102670000500584243412F205B4283430E48EC083B
:102680008446072028408000814020000B4D3C30CC
:1026900063448000A40041511B19002A05D0802208
:1026A000920194466344196030BDC0229201944661
:1026B00063441960F8E7C0463041014000400140E2
:1026C000D023F0B5C6461B0698461B680C4F9B00EE
:1026D0001600FA5804000D0000B5104209D1290077
:1026E00014430D203200FC50FFF7A2FB80BCB8461B
:1026F000F0BD0FF043FB43461B689B00FA58EEE722
:102700002CDB002010B504000D20FFF78BFCD0233C
:102710001B061B6802499B005A58A2435A5010BD21
:102720002CDB00200123D0228340120693629361A8
:10273000094A83009A1811684022514080320A40A9
:102740000649C0008C4663441A60054B9C4605232D
:10275000604443607047C04604C0014004D001405B
:1027600000400140F8B5040021481E0017000D008C
:102770000FF010FC010038000FF00CFC069B360433
:102780001B031E432368002B20DB1A4B1A49E31856
:102790005A1E93418022920194465B421B0B174ABA
:1027A0001B0363441360164A13601F000A689743B3
:1027B000FBD1144B2560E2182123A060136023682D
:1027C000002BFCDA0823E6601360F8BD3F23226883
:1027D0001340AB42D9D1A3681B051B0D8342D4D152
:1027E000EE22E368D2021340B342CED1EDE7C046F9
:1027F000001BB7000040FDBF08C0004000E00040E3
:1028000000F000400430000010B580241C4BE405AB
:102810001C6000281AD001231A4C18431A4BDC61A3
:102820001A4C44401C62596298628021144BC905BD
:102830001960174817490860E021C9041960002A87
:1028400007D18022144B12061A6010BD0E4BD861BE
:10285000EBE753019B1A9B009A18802312015B043B
:102860009A4209D213000D490B60074B5A6080222F
:10287000094BD2051A60E8E7094B1A00F3E7C04696
:1028800000B00540D3C007B0008005402D3FF84F91
:10289000FCFF01000820014000A005408831002015
:1028A000FFFFFF008023024A9B000B43D362704767
:1028B00000800540AA23064A1B0113608D235B009C
:1028C000D3600449044B19605368002BFCDA70474D
:1028D0000040024000B0FA000060024010B501F074
:1028E000B1FC00F059FB00F035FD00F0D9FD06F019
:1028F000EFF901F035FD00F085F906F00BF910BD98
:1029000040BA80B27047C04600BA7047F0B5C646BC
:10291000584D04002B68884600B5002B03D02A7A56
:10292000824200D17CE0544E2701EB68002B02D09C
:102930002A7DA2426AD0AB69002B03D02022AA5C78
:10294000A24259D06B6A002B03D02C22AA5CA2426F
:102950002CD03B191B01F318DB7B002C35D0B27A4D
:10296000022A68D0012C35D08D225200B25C022A96
:1029700000D172E0022C31D0404AB25C022A00D170
:1029800072E0032C2AD1032B0DD83D4D9B005859E2
:1029900006F0F8FC00223F193F01F719FB7B9B0072
:1029A0005A510423FB7380BCB846F0BD38190001AE
:1029B00010304146AA6A3018984700236B623B19D1
:1029C0001B01F318DB7B002CC9D18D225200B25CB5
:1029D000022A3BD0294AB25C022A32D0294AB25C90
:1029E000022AD0D1284AB25C9A42CCD104223B19A7
:1029F0001B01F318DA73D6E738190001103041468D
:102A0000EA69301898470023AB619BE73819000149
:102A1000103041462A69301898470023EB608AE756
:102A200007013818144E000110306A6830189847B2
:102A300000232B6079E7F27B9A42D7D0012C93D107
:102A4000C8E7124AB25C9A42C8D1CFE72022FF32CF
:102A5000B25C9A4200D08FE7C8E72022FF32B25C16
:102A60009A4200D086E7C1E7084AB25C9A4200D099
:102A700087E7BBE7D42800200C2900202A020000A9
:102A8000C42800203A0300003F0300002F0200008A
:102A9000564BF0B54546DE4657464E46984603012E
:102AA000E0B59B461D1843462D015E19F37A0700D9
:102AB00089B0012B00D996E04D4A9B00D458019271
:102AC000002C00D185E010354544280015F0B2FCFB
:102AD000A022123081B29200362000F003FF81461E
:102AE000002869D005AC0C22002120000FF066FE02
:102AF0003089FFF705FF01232080A3700C22FF33EC
:102B000021004846A38001F0F3F93A4B0C269A467F
:102B10004346013D029703936A786F1C3B000024F3
:102B20002E2A07D15AE05A780134E4B2591C2E2AD1
:102B300049D00B00002AF6D1DA1B92B290461D0054
:102B40002200B218524534DC22003100484601F020
:102B500099FA731C9BB2A41942463900484601F009
:102B600003FAA4B22B78661CB6B2002BD4D1039B17
:102B70000022310048469846029F01F083FA1E4B1E
:102B800002340422049304A9A3B2484601F0ECF9EC
:102B90003B0001995B448C461B014344DA7ADB7BA2
:102BA00016499B009200585862443523494606F066
:102BB00077FB484600F0ECFF09B0F0BCBB46B246DC
:102BC000A946A046F0BD5B1B9BB2984622000D00B3
:102BD000B7E70021FFF79AFEB472EDE700233D004E
:102BE00000229846ADE70648FDF76CFF0C2900204F
:102BF00004290020FEFF000000010001C42800207D
:102C0000048A01107047C046012800D97047054B5F
:102C10008000002902D00A68C250F7E7024A126811
:102C2000C250F3E704290020C4AC0110F8B5DE4619
:102C300057464E4645460223E0B5474E0025340030
:102C40009B460027A37A022B39D030D8002B22D004
:102C50008D235B009846414B9946414B9A46FEF7BF
:102C60000FFAB37A80B2022B41D04346F35C022BB9
:102C700044D04B46F35C022B49D05346F35C022B05
:102C80004ED05B46A37201232081E7722800237394
:102C90006773FFF7FDFE01351134EDB2FF34042DEB
:102CA000D0D1F0BCBB46B246A946A046F8BD032B26
:102CB0004FD12368002B13D10023A372EBE7237BB2
:102CC000013BDBB22373002BE5D1637B0133DBB225
:102CD0006373042B2AD023732800FFF7D9FEDAE7A9
:102CE000013B2360002BD6D10023A372D3E73389A5
:102CF0008342B4D04346F35C022BBAD11733FF337F
:102D0000F35A8342ABD04B46F35C022BB5D18A23F6
:102D10009B00F35A8342A2D05346F35C022BB0D1FE
:102D2000CE239B00F35A8342ABD198E7E37A002B82
:102D300008D10C4A5268002A04D001226373E2725F
:102D40002273C9E700212800FFF7E0FD0023A372EA
:102D5000A1E70548FDF7B6FE0C2900202A02000075
:102D60003A03000004290020388A01100123F0B53D
:102D70001E0000250640184205D0002953DD0578C5
:102D800001392D020130032213000340104251D1BA
:102D9000072957DD072208390F0091430A00010077
:102DA00004000831891822689A189A429B415B42B4
:102DB000D21863680834D3189342924152429B1848
:102DC000A142F0D1F9084A1CD2008018C9001A04A7
:102DD000791A120C1B0C9B18012910DD02889B1814
:102DE0008A1E012A05DD44881B19052901DD818819
:102DF0005B1851084C1C640049000019511A012944
:102E000004D10278FE318D431543ADB2ED182B0C81
:102E10002D042D0C5B19180C1B041B0CC018002E64
:102E200002D180B2F0BD0020030600041B0C000E8E
:102E30001843F6E7012903DD038802390230A7E7CA
:102E40000023DCE71A00C5E7F8B557464E46DE46D4
:102E50004546E0B591460A9A8A4611681B680A04FD
:102E6000120C090C52181904090C52181B0C9B184F
:102E70001A0C1B041B0CD3181F0C1B041B0C040086
:102E8000FF18002825D000239B46FF3301269846D3
:102E9000658960682900FFF769FFC019070C000405
:102EA000000C3F182E4209D05B46414673403A065B
:102EB0009B463B0A120C0B401A4317002468002C57
:102EC000E6D15B46002B04D03A063F04120C3F0EBD
:102ED00017435046FFF714FD04004846FFF710FD66
:102EE0002318DB191A0C1B041B0CD318180C1B0419
:102EF0001B0CC018C04380B2F0BCBB46B246A9460A
:102F0000A046F8BD10B582B0049C0094FFF79CFF6A
:102F100002B010BD10B5FFF729FFC04380B210BD4D
:102F2000F8B5CE464746040080B500282FD00023D0
:102F30009946FF3300270126984665896068290075
:102F4000FFF714FFC019070C0004000C3F182E42B5
:102F500009D04B46414673403A0699463B0A120C4B
:102F60000B401A4317002468002CE6D14B46002B77
:102F70000AD038063B04000C1B0E1843C04380B235
:102F8000C0BCB946B046F8BDF84380B2F8E7014886
:102F9000F6E7C046FFFF00000322094BFA219343E6
:102FA000084A0901136000221A71074A5818106074
:102FB000012219600271054A5A50054A1360704790
:102FC0007BCB002070CB002074CB0020A00FA00F83
:102FD00084310020F0B5D6464F464646C0B500289D
:102FE0005DD0830700D079E003003E4A083B1268B9
:102FF0009A4200D96CE03C490C300C68844267D39B
:103000001979002967D0FA2019885E880001814269
:103010000BD8864209D8981A80B280469019824609
:10302000B04505D00088404502D03048FDF74AFD44
:103030005018844238D045884545F6D100251D7189
:103040002B4DAC462D689D4202D965462B601D0074
:103050009C4232D9834212D00779002F0FD184428B
:103060000DD0A84230D00188FA2019800001814299
:1030700005D04446501844805E88901982465345D6
:103080000DD050460079002809D1AB4218D05346E4
:103090001980FA231B01994201D052185680E0BCD6
:1030A000BA46B146A846F0BD00251D71104DAC468C
:1030B0002D68AB42C9D39C42CED80E48FDF702FD25
:1030C000634650461860E2E761461D000B60CAE7A0
:1030D0000948FDF7F7FC0948FDF7F4FC0848FDF73F
:1030E000F1FCC04670CB002074CB0020C08A0110D8
:1030F00084310020F48A01107C8A0110988A011022
:10310000588A0110F8B5CE464746384ACB1C80B5E0
:1031100013400B2B3FD9FA22120193423ED8994219
:103120003CD8334A1668864256D8324A12688242E0
:1031300052D90400083C2588A11B2A0089B2083A0C
:10314000521A92B29A424AD321D07719BC463F799B
:10315000002F25D1FA221201954243D062461288EF
:10316000254D91460A0008329B182F689BB2F21831
:1031700067452FD0002515714D4651801580FA21E5
:103180002380128809018A4201D0B2185380C0BC42
:10319000B946B046F8BD0C239942C2D90020F6E7E3
:1031A0001F001437BFB2BA42F1D30A0008329B188D
:1031B000FA229BB298461201954213D00E4FF21894
:1031C0003B68934200D93A60002743461771158047
:1031D0005180D4E72A60CDE70848FDF773FC084822
:1031E000FDF770FC0748FDF76DFCC046FCFF0000D2
:1031F00070CB002074CB002084310020108B011094
:10320000288B0110488B0110F8B5DE4657464E4614
:103210004546E0B500282ED03D4BC61C1E40B346A7
:103220000B2E2FD9FA231B019E4224D8584522D8B1
:10323000384BFA279A461B6859469946364B3F0148
:1032400018684B461B1A9AB21B041B0C7F1ABB4210
:1032500011D2082149428846C41894462579C25A99
:1032600019001300002D04D14646711A89185945DA
:103270000BD29742F0D80020F0BCBB46B246A9461C
:10328000A046F8BD0C239B46D0E75B461433994219
:1032900011D201235E4623710836204B1968A145DF
:1032A00020D0A619B1422CD320000830A407E3D0C7
:1032B0001B48FDF707FC5E466346FA2708369B1954
:1032C0009BB23F01BB421FD0C1180A8062464A80B0
:1032D00001220D71238022710A88BA42DDD0821842
:1032E0005380DAE7230004E01B88C3181A79002A08
:1032F00004D08B42F8D153461960D2E7524613608E
:10330000CFE70848FDF7DEFB0748FDF7DBFBC046CB
:10331000FCFF00008431002070CB002074CB002023
:103320008C8B01105C8B0110488B01108023414372
:1033300070B55B020C0099420AD288B2FFF764FFB5
:10334000051E03D0220000210FF038FA280070BDBE
:103350000025FBE724230022F0B54746CE469046E1
:103360009946033204249446124E80B5124B134FF3
:10337000B144414632683960614603338B43002CC7
:103380000BD015880021002200E0030001321960F3
:1033900058191900A242F8DB3B600436B14504D04D
:1033A0003268976853685488E3E7C0BCB946B046B2
:1033B000F0BDC046D0A90110C4C200202CCB002013
:1033C00010B5082812D80C4B8000C458FDF790FAAD
:1033D000A3681C68002C07D022681A60A30707D1D5
:1033E000FDF788FA200010BDFDF784FA0024F9E704
:1033F0000248FDF767FBC046D0A90110D08B011031
:1034000070B50C0008280ED800290CD0084B80009D
:10341000C5588B0708D1FDF76BFAAB681A682260B4
:103420001C60FDF767FA70BD0248FDF74BFBC04614
:10343000D0A90110F48B01100C2040427047C04607
:1034400070B5436816000A6804000D0082B09A4205
:1034500001D102B070BD3360300001A9019202F0C9
:103460005BF9300001A905F0B9FF01A9300000F0B7
:10347000C9FE392329686160E25C343B1340052BA7
:1034800005D0E369002BE4D020009847E1E700294C
:10349000F7D01207F5D52000211D08F0D5F8F0E788
:1034A0007047C046F0B54746CE4680B504000F00D1
:1034B0009146984683B0002800D180E00B9B002BFA
:1034C0007DD0002900D18FE04B46002B00D188E051
:1034D0004346002B00D181E0474B00256361002269
:1034E000392320006560A560E56025860021E2544F
:1034F000283004220FF062F90A9B404E63623C239D
:103500003278E5612562E2540C9B23613B68002B15
:103510005BD00021002000224B461B68984200D05F
:10352000A36043461B6899423CD1002A3DD020004D
:103530000B9B9847002842D1314B9C461F683C2387
:10354000E55CFF2D18D03C20002F1AD0BC424FD094
:103550003B00FF2207E01B68002B12D09C4247D0A3
:10356000013A002A17D0195CA942F4D10135EDB215
:10357000FF2D13D02554E9E7E05400253C20002F0F
:10358000E4D1FE2D32D00135EDB263462760200034
:1035900035701C6014E01B48FDF794FA00230025E9
:1035A0002354D3E7E360002AC1D12000390001AAE7
:1035B000FFF746FF20000B9B98470028BCD0002057
:1035C00003B0C0BCB946B046F0BD3900200001AA26
:1035D000FFF736FF0122A068E1689DE70A4B984695
:1035E0007AE7094B994673E7074F6DE70025CCE76B
:1035F0000648FDF767FAC04639340010BCDC0020ED
:103600004CCB0020288C0110C4AC0110148C01108C
:10361000F0B504000D0017001E0083B0002922D071
:10362000002F23D0002E24D02B680022002B15D091
:103630003B68A1688B4200D0A3603368E1688B428D
:1036400003D1002A04D003B0F0BDE360002AFAD110
:103650006A4629002000FFF7F3FEF4E76268002ABB
:1036600009D10122E4E7164D002FDBD1144F002EC3
:10367000DAD1134ED8E7684601A90193009202F00F
:103680004BF8684601A905F0A9FE01A9684600F0BB
:10369000B9FD39232A686260E15C343B0B40052B9D
:1036A00007D1002A05D0090703D52000211D07F006
:1036B000CBFFE369002BD4D0200098470122B7E765
:1036C000C4AC011070B5041E16D04368002B17D18E
:1036D00039220121A35C194224D11D4B1A68A24250
:1036E0002ED01C4A1368A34204D126E01A68A242D5
:1036F00003D01300002BF9D170BD22681A60FBE7DC
:10370000051D0021280002F007F80021280005F01F
:1037100065FE0021280000F075FD39220121A35C1F
:103720001942DAD018008843A0541B070BD4E36970
:10373000002BD2D020009847CFE723681360DBE747
:1037400000221A60CDE7200007F0DCFBEFE7C0465F
:1037500048CB00204CCB0020014B18607047C0467E
:1037600048CB002070B5041E15D03925435DDA071B
:1037700011D401221343DBB24355C269002A01D0A0
:103780009047635D05221A40052A04D16268002A29
:1037900001D01B0700D470BD2000211D07F054FF8D
:1037A000F9E7C04670B5041E03D03925435D5A07BA
:1037B00000D570BD04221343435506F007FD0523D1
:1037C000625D1340052B05D0236A002BF1D0200049
:1037D0009847EEE76368002BF6D01207F4D5200077
:1037E000211D07F031FFEFE710B500280AD039227C
:1037F0000421835C194205D08B438354036A002B58
:1038000000D0984710BDC046021E0ED0084B186865
:10381000002809D03C2102E00068002804D0435C65
:103820000133DBB29342F7D170470020FCE7C0467A
:103830004CCB0020F8B505000026002826D00F2725
:103840000BE0012B24D0002B2AD12800FFF7C2FB6C
:103850000136F6B2002C19D02500FDF749F8AC7BF3
:10386000002C1AD0013CE4B2AC73FDF743F8002CF5
:103870000CD12B7B2C683B40022BE2D12900082085
:103880000136FFF7BDFDF6B2002CE5D13000F8BDE2
:1038900029000720FFF7B4FDDAE70348FDF712F926
:1038A0000248FDF70FF9C046588C0110708C0110CA
:1038B00010B5FDF71DF80022084B1A70FDF71AF835
:1038C000074B1868002803D107E0C068002804D01F
:1038D000436F002BF9D001F069FF10BDBEDC002062
:1038E0005CDC0020F0B5C1234F464646D6468046F4
:1038F000C0B50D00170004005B009A4250D00022B2
:103900000C0491460C439F4208D83D00433BFF3BCB
:103910009D43012D24D03B48FDF7D4F8A0239B0004
:103920009F42F8D10300032703330335BB43BD4354
:103930005B199BB21800103080B2AB422ED3854287
:103940002CD8FFF761FC061E16D04B460360434699
:10395000C3181333BB4343602B4B8460C3600BE03D
:103960000720FFF72DFD061E06D04B46846003603E
:10397000436007734373C5813000E0BCBA46B1466B
:10398000A846F0BDFCF7B4FF0122204B1A70FCF7EB
:10399000B1FF002E02D03000FFF74CFF0026EBE70E
:1039A000002398461A4B00269A460023032799467F
:1039B00007E04246ED1AADB21060002DDCD0804623
:1039C00000240820FFF7FCFC0028DBD05246E31C53
:1039D000BB43D31A1A1C9BB2AB4200D92A1C4946DE
:1039E000041993B2133442810A4ABC430160446013
:1039F0000581C260002EDCD1ED1AADB20600002DAB
:103A0000DDD1B9E7848C011080000100BEDC00200C
:103A1000EC0500008200010070B5041E33D002895D
:103A20008A421BD98A1A07E0C91A238989B29B18CE
:103A300023812468002C20D063898B42F4D3227B1D
:103A40000D040D43120701D18B4208D12068A560F7
:103A5000002801D0FFF7EEFE0023236070BD6368ED
:103A600020001B1BC91889B2FFF74CFB002807D0A8
:103A70008442EBD00548FDF725F80548FDF722F80C
:103A80000448FDF71FF80448FDF71CF8EC8C011002
:103A9000B88C0110D08C0110A08C0110030070B5FF
:103AA00000281ED080225202914218D2002914D040
:103AB00002898CB2A21892B2944210D8057B0120E0
:103AC0007F2D0BD95D68691A1D001035A94205D3F9
:103AD000596059891A8164185C81002070BD0120E9
:103AE000FCE70148FCF7EEFF088D011010B5002837
:103AF00015D080235B0299420FD200290BD0438955
:103B00008AB29A4209D89B1A446843810389611892
:103B10009B1A41600381002010BD0120FCE7014891
:103B2000FCF7D0FF088D011010B5002915DB002827
:103B300029D000290FD003898AB2D3189BB29A42A8
:103B40001FD84468611A047B7F2C16D841604189D4
:103B5000038152184281002010BD002813D0494231
:103B600043898CB29C420CD81B1B42684381038959
:103B700052181B1B42600381EDE704001034A14280
:103B8000E4D20120E8E70148FCF79CFF088D011012
:103B900010B5002802D0FFF74DFE10BD0148FCF71C
:103BA00091FFC046088D011003000020002B04D0B7
:103BB0001B68013080B2002BFAD1704710B5041E8B
:103BC00009D0FCF795FEA37B0133A373FCF792FEAB
:103BD000A37B002B00D010BD0148FCF773FFC0464B
:103BE000148D011010B5002816D0002914D00268D9
:103BF000002A01D111E01A0003890C891B190381E5
:103C000013681000002BF6D110895389834206D126
:103C1000088911601B18138110BD0200F4E70148E8
:103C2000FCF750FF288D011010B50C0000281FD0A4
:103C300000291CD00368002B07D002892189521863
:103C4000028118001B68002BF7D102894389934237
:103C500011D1228904609B180381FCF749FEA37BE4
:103C60000133A373FCF746FEA37B002B06D010BDE7
:103C70000029FCD0F1E70348FCF724FF0248FCF7D9
:103C800021FFC046288D0110148D0110F8B547465C
:103C9000CE46060080B5884691461F00002900D117
:103CA0008AE00B89934200D286E0002800D183E0AD
:103CB0004B460289FB189A4200DA7DE000250EE0AF
:103CC000BA4242D0424612899A4236D0002E03D0E0
:103CD000728933899A4245D04B46002B5FD04346C8
:103CE00074895B89E41B5B1B9C4200D91C004C451A
:103CF00000D94C464346706859682200C0194919DA
:103D00000EF062FD4B463F192D1972891C1BA3B2A0
:103D10009946BA4253D343465B89AB4252D3CFD183
:103D200043461B689846002B28D0BA420CD0424626
:103D30005B89128900259A42C8D143461B68002B33
:103D4000C4D0062040422BE000253668002E1ED04D
:103D500043465A891B899A420AD0002772893389BF
:103D60009A42B9D13368002BB6D00620404217E002
:103D700043461B68002BE4D10027EFE74B46002B9E
:103D80001AD10025BA42A1D1002736689EE74B46DA
:103D9000002B11D143465A891B899A4204D0002036
:103DA000C0BCB946B046F8BD43461868431E9841AA
:103DB000052340429843F3E710204042F0E70348D0
:103DC000FCF780FE0248FCF77DFEC046588D0110CE
:103DD000708D011010B5002904D000230A89FFF767
:103DE00055FF10BD10204042FBE7C046F0B5C64667
:103DF000050088461700002600B5002826D00029B7
:103E000024D0002F05D121E02D681B1B9BB2002D73
:103E10001CD06C89002B01D0A342F5D2E41A221CDD
:103E2000A4B2BC4200D93A1C94B2424669683F1B16
:103E30009019C91822003619BFB20EF0C5FCB6B2EF
:103E40002D68002F02D00023002DE2D1300080BC6D
:103E5000B846F0BDF8B54746CE4680B5984608ABA3
:103E600004000D001B88002815D0002913D04245FE
:103E700005D210E024689B1A9BB2002C0BD06289FB
:103E80009A42F7D9414659188A4209DB6068C0183E
:103E900002E0B8452AD00020C0BCB946B046F8BD03
:103EA00046460027002E06D120E09B1A24689BB2CC
:103EB000002CEED06289002B01D09342F5D2D21AA9
:103EC000111C92B2B24200D9311C8AB2914661688B
:103ED000E819C9180EF078FC4B46F61A4F44B6B2F2
:103EE0002468BFB2002ED4D00023E1E72800D3E736
:103EF000F8B5CE46474605008846914680B500286D
:103F000024D0002922D0038993421CD31600002715
:103F1000002A02D112E0002D1BD06C89B44200D9D6
:103F2000340043466868D91922000EF04DFC361B58
:103F30002D683F19002EEED1B9450DD10020C0BC2F
:103F4000B946B046F8BD01204042F8E71020404293
:103F5000F5E70348FCF7B6FD0248FCF7B3FDC046A1
:103F60008C8D0110A48D0110F0B5D6464F46464603
:103F700005008A46C0B5002805D146E02D68DB1B48
:103F80009BB2002D41D06F89BB42F7D22989981886
:103F90008146814239DB9F4240D96868C018FB1ACC
:103FA0009A422EDD9BB21A00514698460EF00CFC48
:103FB0004B46DF1BBBB29946002B1CD02F68002F4D
:103FC00029D03B894B4520D34E46002401E0002FE9
:103FD0001ED07D89B54200D935004346191978684D
:103FE0002A0051440EF0F0FB761B3F686419002E46
:103FF000EDD1A14515D10020E0BCBA46B146A84696
:10400000F0BD51460EF0E0FBF5E701204042F3E73A
:104010000548FCF757FD10204042EDE70348FCF748
:1040200051FD0348FCF74EFD8C8D0110BC8D011035
:10403000A48D01100B0070B5150011891A00FFF74F
:1040400051FC041E06D0002329002A89FFF71EFE1A
:10405000002801D1200070BD0148FCF733FDC046A7
:10406000D48D0110002805D109E00068C91A89B271
:10407000002805D043898B42F7D94368585C7047C4
:104080000020FCE705E043898B4205D8C91A006887
:1040900089B20028F7D1704743685A54FBE7C046FD
:1040A000F0B5DE46454657464E468046E0B5514F90
:1040B00083B03968786908F0D3FC43465A684E4BA0
:1040C000557A1C689B46002C00D18EE0002843D115
:1040D0003C2300269946844604E0E3682600002B32
:1040E00032D01C00237CAB42F7D1217A002906D0C4
:1040F00048467B681B5C0133DBB29942EDD12368F3
:10410000002B02D079698B42E7D10121637C1942EF
:1041100003D061683B699942DFD163699A46002BFD
:10412000DBD0019221004246A069344BD0470028E1
:1041300050D143465A68019B934258D102239C4672
:10414000E3682600002BCCD1604603B0F0BCBB4630
:10415000B246A946A046F0BD0020012300269A469B
:10416000019004E0E3682600002B31D01C00237C82
:10417000AB42F7D1217A002908D07B689C463C23CA
:104180006046C35C0133DBB29942EBD12368002B5C
:10419000E8D15146637C194203D061683B6999427A
:1041A000E0D163699946002BDCD0019221004246A0
:1041B000A069124BC84700280CD143465A68019B9E
:1041C0009A4214D102230193E3682600002BCDD13B
:1041D0000198BAE7002E06D0E368F3605B461B68DF
:1041E000E3605B461C600120AFE70020ADE70448B8
:1041F000FCF768FC6831002034DB002078310020B7
:10420000E88D011010B5002811D00268002A0ED0E8
:1042100000290CD00B68002B09D0094B1B68002B20
:1042200005D01C68944203D0DB68002BF9D110BD87
:104230000A681A60DB68002BF9D00268F1E7C04613
:1042400034DB00207047C04610B5041E20D0037D2B
:10425000042B03D0072B0AD0032B11D1200003F02D
:10426000FFFC0523002807D0431C0BD010BD03F032
:10427000F7FC0028F8D109232000237504F000F88A
:104280000020F3E70822638B002013436383EDE7EC
:104290000148FCF717FCC046348E011070B50600CB
:1042A000806F002803D0FFF773FC0023B367746F9F
:1042B000002C18D06068256800280CD0FFF768FC37
:1042C00021000420FFF79CF8002D0AD02C00606824
:1042D00025680028F2D121000420FFF791F8002D75
:1042E000F4D1002373670123F46E5B423386002C04
:1042F00016D06068256800280CD0FFF749FC210023
:104300000420FFF77DF8002D0AD02C006068256896
:104310000028F2D121000420FFF772F8002DF4D11B
:10432000346F002C16D06068256800280CD0FFF789
:104330002FFC21000420FFF763F8002D0AD02C0089
:10434000606825680028F2D121000420FFF758F8A2
:10435000002DF4D100236822F3663367B35270BD99
:1043600010B5FCF78DFE044A80049446034B800C84
:104370006044188010BDC04600C0FFFFA01100209F
:1043800010B5037D0100012B03D00220FFF738F8A0
:1043900010BD0148FCF796FB408E0110F8B5CE46E3
:1043A000474680B5002961D0002864D0037D002BEA
:1043B0005ED1002A2BD0314E3700103733681B688E
:1043C000002B03D113E0DB68002B10D0DC8A944271
:1043D000F9D11C68002C04D00D68002D01D0AC422E
:1043E000F1D108204042C0BCB946B046F8BD043601
:1043F000B742E3D10B68002B00D00360204BC28290
:104400001A681860C26004F047FB0020EBE71D4B00
:10441000802698461A881C4B184F9C4610239946B4
:10442000F601B944013292B2624514D03D002B68C6
:104430001B68002B03D111E0DB68002B0ED0DC8A57
:104440009442F9D1013EB6B2002EEBD143461A8018
:1044500002204042C7E7C0221202E7E704354D457B
:10446000E5D143461A80002AC4D1F1E707499BE70A
:1044700006204042B7E710204042B4E760AA01108E
:1044800060DC0020A0110020FFFF0000C4AC011080
:10449000F8B5031E1BD0048DC16A466A5D8E0F4FAE
:1044A000601A80192A1CBD420CD892B2821A07D514
:1044B000891B09D48022520291420BD200208CB277
:1044C0005C85F8BD3A1CF0E700240020F8E70448BA
:1044D000FCF7F8FA0348FCF7F5FAC046D0160000DE
:1044E000548E0110788E0110F8B500281DD0037D80
:1044F000012B34D0048D1D4A61188BB293421BD915
:104500001300466A458E1A4FC46A0385B218291CE7
:10451000BD420BD889B20919511A11D5A41B1BD45D
:1045200080235B029C421DD24485F8BD391C89B2B0
:104530000919511AF2D403E09C42E1D81A00E0E7CD
:1045400043850C4B121B9A42EFD90222438B134333
:10455000438303F095FEE8E700234385E5E706483B
:10456000FCF7B0FA0548FCF7ADFAC046A02D0000F4
:10457000D0160000670B0000948E0110788E011099
:10458000F8B54E46DE46574645460400E0B51E00E7
:10459000002800D1B7E0002900D1B4E0037D002B52
:1045A00000D0ADE00B6802834360007A002837D169
:1045B000201D07F00DFF002800D1A7E02368002B85
:1045C00001D143682360E78A002F37D1514B9A46C7
:1045D0001D888023DB019C464F4B98464F4B9946E4
:1045E000102343449B460135ADB24D451BD0434695
:1045F0001A681268002A03D118E0D268002A15D080
:10460000D18AA942F9D16346013B9BB29C46002B5B
:10461000E9D153461D806346E38202256D4250E096
:10462000FFF7F2F8C7E7C0252D02E0E704335B454A
:10463000DED15346E5821D80002DEED0384B39493E
:104640001A68096852181A6000232265013A6264E8
:10465000A265E265344A6362A262344AE36260336F
:10466000E252028E002A3AD0131C282A3CD386211B
:10467000283B1A1C9BB289008B4233D892B26286C7
:1046800048230122E252403302212000E65003F089
:1046900073FB051E15D102232375002F05D0244A74
:1046A0001368A34218D1E3681360224B1A681C6098
:1046B000E26004F0F1F901221F4B20001A7003F0B0
:1046C000DFFD2800F0BCBB46B246A946A046F8BDB7
:1046D000DA68A24211D01300002BF9D1E5E7862257
:1046E0009200CCE70A1CC9E728238621283B1A1C24
:1046F0009BB289008B42C1D9F4E7E268DA60D4E763
:104700000A256D42DDE710256D42DAE704256D428A
:10471000D7E7C046A011002060AA0110FFFF0000EB
:104720009C1100206CDC0020A02DA02DA02D0000ED
:1047300060DC00205CDC0020C1DC0020C14BF0B557
:104740004E469946DE46574645464A46E0B51B6802
:1047500089B001331360BC4A13780592013313709A
:10476000BA4B0793BA4B0693079B1C68002C00D1E9
:10477000C7E000239B4649E0012290460B2B00D85E
:10478000E8E0062D00D10FE1637A1B0758D5042D10
:1047900000D0EEE14B461F68236AFA21FF1A9423EA
:1047A000E35849009A469823E6580433E05870438A
:1047B00050440DF0EFFB874200D8C3E1434601337C
:1047C000DBB298460123666F9A46002E00D1AAE11B
:1047D0004023E25E53009B185B00BB4241D9257D1C
:1047E000032D5AD0092D00D1FDE04346002B00D007
:1047F00099E1237F627F0133DBB2E56823779A4238
:1048000000D804E1A3462C00002C7AD0257D002D91
:1048100000D1EDE1012D00D1E7E10A2D00D1E1E168
:10482000059BA27F1B789A4200D107E1A377422320
:10483000E35C022DA0D1052B00D88BE00123984624
:10484000666F002E00D17AE14B461F68236AFF1A7B
:1048500000239A464023E25E53009B185B00BB4254
:10486000BDD87068356800280CD0FFF791F9310089
:104870000420FEF7C5FD002D0AD02E0070683568B3
:104880000028F2D131000420FEF7BAFD002DF4D14A
:104890000023257D6367032DA4D14B46226A1B6844
:1048A0009B1A282B00D8A5E09023E6582000FFF79C
:1048B000F5FC5A46079B1B68002A00D16DE19C421B
:1048C00000D19EE1E368D3605346002B00D054E151
:1048D000237D2569E768012B00D18FE121000220AB
:1048E000FEF78EFD0023069C2370002E07D00D21BD
:1048F00028004942B0472378002B00D034E73C1E03
:1049000084D1544E002431684D46002904D11AE068
:104910000C00C968002916D00B7D0A2B00D06AE173
:104920002B680A6A9B1AF02BF2D93368002C00D14D
:1049300040E1994200D167E1CF68E7600220FEF7CD
:104940005FFD391EE8D109B0F0BCBB46B246A946AE
:10495000A046F0BDA123E35C9846002B00D17DE08A
:10496000236F002B00D058E1E36E002B00D157E1FC
:10497000A223E35C0B2B00D90CE14246A021364B6D
:10498000D25C635C934200D20DE16023E15A0029BE
:1049900019D1200003F070FF00281AD0257D0023D4
:1049A0009846062D00D0EFE6638BDB0600D5A9E024
:1049B000637A1B0700D543E7666F002E00D043E7FC
:1049C00000239A4611E7200003F070F8002800D178
:1049D00001E1A0230022E254A132A35C062BDDD822
:1049E0000133A354DAE74B46226A1B689B1AF02B6B
:1049F00000D959E74346002B00D055E7237F627F5B
:104A00000133DBB2E56823779A4200D9FAE6002346
:104A1000069A237713708C33E358002B0AD02100B9
:104A200020699847069B1B78002B00D09CE6002845
:104A300000D0E7E6200003F023FCE3E6A346E468A9
:104A4000E2E6C0466CDC0020C3DC00205CDC002019
:104A5000C1DC002070DC00206FAA01103023E25E70
:104A60007149238E8B4202D801331AB22286402329
:104A7000E35E934200DD84E6200003F001FA257D29
:104A8000002807D0236F002B00D07AE6E36E002BBE
:104A900000D176E6022D16D03C22A35E3E21625E56
:104AA000DB109B184222A15C60480A1C0C2900D92B
:104AB00087E0D2B2825C934080221202934200DBF4
:104AC0007DE04022A3520023482023866033E15A30
:104AD000255A628E0B1CA94200D92B1C9BB2500098
:104AE0005B0885B2191CAB4200D2011C4A23E1527B
:104AF000023BE252002222332000E25203F0EAFDA0
:104B0000257D3EE64B461F68236AFF1A282F00D8F2
:104B100052E743460133DBB298460023666F9A465C
:104B2000002E00D054E69023E658002D00D1C0E6B8
:104B30000A2D00D1BDE6012D00D0B7E6B9E600236D
:104B40009A464CE6A323E35CFA215E433000490019
:104B500050440DF01FFA874200D82DE7200003F0E3
:104B60001DFE002800D06BE6A322A35C0133A354F2
:104B700066E6072D00D10DE662E6238B626A216DA1
:104B80000293E38A20000193231D0093230003F086
:104B900045FA9DE601239846F3E59C4237D1E36848
:104BA000079A136090E60133DBB26354934200D25C
:104BB000F5E6EAE699422DD1CF683760BEE61C4B98
:104BC0007FE70C22D2B2825C934080221202934291
:104BD00000DA76E7F3E7200003F052FB002800D06C
:104BE000F7E6DBE61348FBF76DFF1348FBF76AFFB8
:104BF0001248FBF767FF1248FBF764FF1148FBF709
:104C000061FF1148FBF75EFF1048FBF75BFF1048A0
:104C1000FBF758FF0F48FBF755FF0F48FBF752FF14
:104C20000E48FBF74FFFC046FE7F000078AA011038
:104C3000FF7F0000148F0110E88E0110BC8E011060
:104C400004900110408E0110AC8F011034900110BF
:104C5000D88F01105C900110408F0110748F0110EB
:104C600070B5041E16D06068256800280CD0FEF7C9
:104C70008FFF21000420FEF7C3FB002D0AD02C007B
:104C8000606825680028F2D121000420FEF7B8FBF7
:104C9000002DF4D170BDC04610B5041E08D0406888
:104CA000002801D0FEF774FF21000420FEF7A8FBC6
:104CB00010BDC04670B5051E0DD00420FEF780FB68
:104CC000041E06D0102229000DF07EFD6068FEF75C
:104CD00075FF200070BD0148FBF7F4FE84900110C1
:104CE000002800D00161704710B5002804D0037D72
:104CF000012B02D08423C15010BD0148FBF7E2FE16
:104D0000A090011010B5002804D0037D012B02D023
:104D10008023C15010BD0148FBF7D4FEC89001109C
:104D200010B5002804D0037D012B02D09023C15080
:104D300010BD0148FBF7C6FEF090011010B5002829
:104D400005D0037D012B03D08C23C150427710BDC9
:104D50000148FBF7B7FEC0461891011010B50028B6
:104D600006D0037D012B03D90A2B01D0FFF796FA59
:104D700010BDC04610B50C1E47D0002848D00368AF
:104D80008B4204D12FE0DA68A24224D01300002B1A
:104D9000F9D10023E360237D002B0FD1638BDA0769
:104DA00029D4E36E002B36D1236F002B36D1636FED
:104DB000002B36D100232375E38210BD0A2BF0D0DF
:104DC000012BF7D02000FFF769FA237D0A2BE8D0EA
:104DD000012BEFD0E2E7E268DA600023E360237D95
:104DE000002BEBD1DAE7CB6803600023E360237D7F
:104DF000002BE3D1D2E7022213436383200003F0A8
:104E00003FFA237D012BD5D0CBE70748FBF75AFEAD
:104E10000648FBF757FE0648FBF754FE0548FBF72C
:104E200051FE0548FBF74EFE3891011054910110D8
:104E3000749101108C910110A8910110F0B54E46AB
:104E40004546DE465746E0B505000E0087B000280F
:104E500076D0037D012B00D1B0E00A2B00D19BE07E
:104E6000026D9246426A05929022825893460269E8
:104E70009146C28A9046002B69D1002A6FD1002347
:104E8000002698462C6F002C16D0606827680028F2
:104E90000CD0FEF77DFE21000420FEF7B1FA002FB2
:104EA0000AD03C00606827680028F2D12100042065
:104EB000FEF7A6FA002FF4D1EC6E002C16D0606835
:104EC000276800280CD0FEF763FE21000420FEF7BF
:104ED00097FA002F0AD03C00606827680028F2D1BA
:104EE00021000420FEF78CFA002FF4D16C6F002C07
:104EF00016D06068276800280CD0FEF749FE210014
:104F00000420FEF77DFA002F0AD03C006068276875
:104F10000028F2D121000420FEF772FA002FF4D10C
:104F2000002E2CD12B7D012B45D029000220FEF72D
:104F300067FA5B46002B03D00D2148464942D8470B
:104F400007B0F0BCBB46B246A946A046F0BD29005A
:104F50001C48FFF70FFF01221B4B1A7092E71B4AF8
:104F60001368834208D1C36813600023EB6086E7AF
:104F7000DA68AA421CD01300002BF9D1F5E72B8B7D
:104F800051460293434601932B1D009328002B00AA
:104F9000059A03F043F8C5E729000D48FFF7EAFE3C
:104FA0002B7D012B07D029000220FEF729FAC7E745
:104FB000EA68DA60D9E70748FBF784FD0648FBF7A3
:104FC00081FDC0465CDC0020C1DC002060DC0020EC
:104FD00070DC0020408E0110C091011010B501213D
:104FE000FFF72CFF10BDC046F0B5C646060000B561
:104FF0000220FEF7E5F9041E2AD0A4220021200099
:105000000DF0DCFB6423624A6675E252614B40227C
:10501000A362FF23E372F93BA352E3875E4B443262
:1050200023635E4B1B6823625D4B1B78A3775D4B4C
:10503000A3645D4BA35094235C4AE2505C4A043362
:10504000E25009220433E250200080BCB846F0BD93
:10505000584B082798461D68002D0AD02800438B1E
:10506000ED681F42F8D0BB434383FFF7EDF8002DF6
:10507000F4D1514B1B68002B11D00021474A106816
:105080001A6A821A914201D811001C00DB68002BB9
:10509000F6D1002C03D001212000FFF7CFFE022023
:1050A000FEF78EF9041EA8D143461B68002B16D0CC
:1050B0003A4A0021106802E0DB68002B09D01A7D13
:1050C000092AF9D11A6A821A9142F5D811001C00F6
:1050D000F2E7002C03D000212000FFF7AFFE0220F2
:1050E000FEF76EF9041E00D087E743461B68002BCD
:1050F00016D02A4A0021106802E0DB68002B09D094
:105100001A7D082AF9D11A6A821A9142F5D811003B
:105110001C00F2E7002C03D000212000FFF78EFED8
:105120000220FEF74DF9041E00D066E773B2002B93
:105130002BDB002E22D0320043461B68013AD2B24C
:10514000002B1BD015490F680021884607E0186A1C
:105150003A1A90461C000A00DB68002B08D0597DE3
:105160008A42F4D8F8D1186A3D1AA845F4D8EFE776
:10517000002C03D001212000FFF760FE0220FEF783
:105180001FF9041E00D038E75EE77F22D4E7C0464F
:10519000A02D0000A02DA02DFFFF18026CDC002028
:1051A000C3DC00200100A02D5153001000DD6D0074
:1051B000F82401005CDC002070DC002010B54020E9
:1051C000FFF712FF10BDC04630B5040085B00028BF
:1051D00000D19DE0037D002903D0042B1AD0072BBA
:1051E00018D0012B00D168E0022B4AD0002B5DD1F2
:1051F000E38A002B4FD04B4A1368A34205D184E0C9
:10520000DA68A24200D17DE01300002BF8D1002320
:10521000E36040E0A36F002B44D0638BDB0600D437
:1052200079E0238B626A216D0293E38A2000019367
:10523000231D0093230002F0F1FE237D012B04D9EE
:105240000A2B02D02000FFF729F8374A1368A3423F
:1052500014D1E368136000230122E360334B1A701A
:10526000334B1B68A34225D0237D012B13D131483A
:10527000FBF728FCDA68A24241D01300002BF9D1D9
:10528000E9E721002848FFF775FD0122274B1A7036
:10529000237D012BEBD021000220FEF7B1F8002086
:1052A00005B030BD244B228D9A42B6D12000FEF7C6
:1052B000CBFFF5E702F07EF8F1E7204900200D0072
:1052C0000C354B681B68002B05D0DA6F944211D067
:1052D000DB68002BF9D104318D42F2D1210018484E
:1052E000FFF748FD237D012B18D021000320FEF796
:1052F00087F8D4E7D867DB68002BE6D1EBE7E268F4
:10530000DA60A8E7E268DA6081E7E36813607EE7C5
:105310000C48FBF7D7FB0C48FBF7D4FB0B48FBF71B
:10532000D1FBC04660DC00205CDC0020C1DC00203A
:1053300064DC0020408E0110A02D000060AA011046
:1053400068DC0020F49101101492011030920110D9
:10535000F0B5C6460800140000B500294AD0002A5E
:105360002CD013890A7D012A47D0098D264A5B1863
:105370009BB293421ED913009046476A468E234A39
:10538000C56A0385B844311C964200D9111C4246B7
:1053900089B24919511A21D5ED1B1CD480235B0217
:1053A0009D422DD245852000FEF7F2FB002080BCF7
:1053B000B846F0BD9942DED81A00DDE7002BF5D1E2
:1053C0000B7D012B03D010224B8B13434B83012108
:1053D000FFF7FAFEEBE700234385E4E743850C4B38
:1053E000521B9A42DFD90222438B1343438302F0BC
:1053F00047FFD8E710204042D9E70648FBF762FB99
:105400000548FBF75FFBC046A02D0000D01600004A
:10541000670B0000948E0110788E0110F8B5041E01
:1054200032D00023866F777B83678433C558002D85
:105430000CD00023320021000069A84700280BD0BF
:105440000D301ED00520A6674042F8BD3189FFF718
:105450004BF83000FEF79CFBBF0610D5238D0C4A9D
:10546000934201D0013323858423E558002D06D0D3
:105470000023002221002069A8470D3001D0002020
:10548000E3E70D204042E0E710204042DDE7C04660
:10549000A02D0000F0B54F464646D646C0B5204D7B
:1054A000204F2B7801332B701F4B994601239846D0
:1054B0004B461C68002C1BD008262B78A27F9A42F2
:1054C0001BD04246A377638B1A421ED11E4216D1CF
:1054D000E3689A46A36F002B07D0002320003B709F
:1054E000FFF79CFF3B78002BE2D15446002CE4D11F
:1054F000E0BCBA46B146A846F0BDE468F6E7B3435F
:1055000020006383FEF7A0FEE2E7022213436383D9
:10551000200002F0B5FE0322638B93436383D5E73B
:10552000C3DC0020C1DC00205CDC002010B5FFF7EC
:10553000B1FF054A13780133DBB21370DB0700D4E7
:1055400010BDFFF7FBF8FBE7C2DC002030B504001C
:1055500085B0002800D198E0037D012B00D16FE0D9
:105560001021428B0A434283042B36D1A36F002BB8
:105570004BD0238B626A216D0293E38A2000019352
:10558000231D0093230002F049FD237D012B04D944
:105590000A2B02D02000FEF781FE3F4A13689C428E
:1055A00018D1E368136000230122E3603B4B1A70BB
:1055B0003B4B1B689C4230D0237D012B3AD021000D
:1055C0000220FDF71DFF002005B030BDDA689442CF
:1055D00033D01300002BF9D1E5E7072BC6D0022BFF
:1055E0001ED016D8C38A002BE9D02E4A13689842E1
:1055F00008D1C36813600023E360E0E7DA689442EF
:1056000040D01300002BF9D1F5E7274B228D9A42A9
:10561000AFD12000FEF718FED6E701F0CBFED2E7AF
:1056200021001D48FFF7A6FB01221C4B1A70237DA9
:10563000012BC4D11D48FBF745FAE268DA60B2E7F6
:105640001B4900200D000C354B681B68002B05D052
:10565000DA6F944211D0DB68002BF9D10431A942F2
:10566000F2D121001348FFF785FB237D012B0FD0DA
:1056700021000320FDF7C4FEA5E7D867DB68002BF7
:10568000E6D1EBE7E268DA60B5E7102040429BE73D
:105690000948FBF717FAC0465CDC0020C1DC00209B
:1056A00064DC002060DC0020A02D0000408E011092
:1056B00060AA011068DC00203092011010B50028AB
:1056C00006D0054B054A186812688018186010BD8E
:1056D0000348FBF7F7F9C0469C1100206CDC002062
:1056E0004C92011010B5002A10D000290DD00A8E5E
:1056F000002A0AD0131C282A00D22823283B1A1C6F
:105700009BB2834200D9021C90B210BD0148FBF746
:10571000D9F9C0466892011070B505000E00002846
:1057200002D00368002B00D170BD1D4A106800280C
:1057300004D10CE0002C0AD020002B680268C46859
:105740009342F7D10121FFF779FB002CF4D1154BDF
:105750001C68002C0AD022682B682000E4689A425A
:10576000F7D10121FFF76AFB002CF4D1002EDBD02A
:105770003368002BD8D00C4B1A68002AD4D02B6881
:105780001168994205D0D268002ACDD0116899429B
:10579000F9D133681360D268002AF0D1C4E7C0465B
:1057A0005CDC002060DC002068DC002070B5446F09
:1057B0000600002C18D06068256800280CD0FEF781
:1057C000E7F921000420FDF71BFE002D0AD02C0074
:1057D000606825680028F2D121000420FDF710FE42
:1057E000002DF4D10023736770BDC046F0B5C646E6
:1057F00000B5002800D1C4E0634B1D88002D31D0D6
:10580000624B9C46002362461380614B1F68614BCC
:105810001C88002F00D16FE05F49002300228846DA
:105820001600954200D8A2E0531CB1B29BB28C4244
:105830001BD8191B0139C9B2795C01291BD0022977
:105840001DD000290CD09C424DD953490968CB1872
:105850001B7D012B00D890E09A1892B20123DFE75C
:105860006246138080BCB846F0BD4146096889197C
:10587000097D0129E3D11A0001360123D1E7911CEA
:1058800089B29C4221D9444E3668F3181B7D042B03
:1058900020D14B1CAB421DDAD31C04329BB292B216
:1058A0008C421AD8091BC9B27E5C36029C421ED8B3
:1058B0001B1BDBB2FB5C3343591E384E89B2B1422D
:1058C00000D9374B43860123AAE71B1BDBB2FB5CE5
:1058D000042BDED063461980C4E72F4E366871185A
:1058E0000E7D3602E2E71B1BDBB2FB5CB1E72A4907
:1058F0000968CB181B7DDEE7274B00221E680023BA
:1059000014001434954232D9315D531C9BB20129E5
:1059100026D0022909D00029A2D0F3181B7D012B23
:105920002BD99A1892B20123EAE7F3181B7D911C38
:1059300089B2042BCED14B1CAB42CBDAD41C7118EC
:10594000A4B20B7D3419217D1B020B43591E134C4D
:10595000043289B292B2A14206D843860123CFE72E
:105960001A0001340123CDE70D4B4386F6E7002BE7
:1059700000D177E763461A8074E7634602321A80E3
:1059800070E70848FBF79EF8AADC0020A6DC0020A0
:1059900078DC0020A8DC002074DC0020B3050000C7
:1059A000B405000090920110F0B5D6464F46464629
:1059B00005000C00C0B500285CD0C368587B1A7B7A
:1059C00000021043FCF79CFFC0074FD401239A4606
:1059D000FE339846294E3268E36894465A7919791D
:1059E00012020A439979288909041143DA7927892F
:1059F000120660440A43811AC91B2DD4587B1A7BB6
:105A000000021043FCF77CFF5346034207D127688E
:105A10002000FFF741F9002F17D03C00DBE7EB68CF
:105A2000587B1F7B000207430120FCF769FF4146BA
:105A30003843EA6883B2276808401B0A107353731F
:105A40002000FFF729F9002FE7D100242C60E0BCEB
:105A5000BA46B146A846F0BD101AF7D56346D21A29
:105A600091B268682981FDF7D7FFEFE72000FFF7C3
:105A7000F7F8EAE70248FBF725F8C04648DB0020C4
:105A8000AC920110F0B55746DE464E464546E0B5AD
:105A900083B007000C1E019246D02D4B9B46662317
:105AA00098462C4B9A465B46E1681D684A790B790B
:105AB00012021A438B79C8791B041343000618435A
:105AC000FCF722FF238906009946E368AD1B587B4B
:105AD0001A7B00021043FCF713FF4B46ED1A032319
